:100000006F00B03B1300000013000000130000005D
:100010001300000013000000130000001300000094
:100020001300000013000000130000001300000084
:08003000130000007300100032
:100038000000000000000000080300000C0300009E
:1000480000000000000B000000000000000000009D
:10005800020B0000040B000000000000000000007C
:10006800060B000000000000080B00000000000064
:100078000A0B00000C0B00000E0B0000100B000018
:10008800120B0000140B0000160B0000180B0000E8
:100098001A0B00001C0B00001E0B0000200B0000B8
:1000A800220B0000240B0000260B0000280B000088
:1000B8002A0B00002C0B00002E0B0000300B000058
:1000C800320B0000340B0000360B0000380B000028
:1000D8003A0B00003C0B00003E0B0000400B0000F8
:1000E800420B0000440B0000460B0000480B0000C8
:1000F8004A0B00004C0B00004E0B0000500B000098
:10010800520B0000540B0000560B0000580B000067
:100118005A0B00005C0B00005E0B0000600B000037
:10012800620B0000640B0000660B0000680B000007
:100138006A0B00006C0B00006E0B0000700B0000D7
:10014800720B0000740B0000760B0000780B0000A7
:100158007A0B00007C0B00007E0B0000800B000077
:10016800820B0000840B0000860B0000880B000047
:100178008A0B00008C0B00008E0B0000900B000017
:10018800920B0000940B0000960B0000980B0000E7
:100198009A0B00009C0B00009E0B0000A00B0000B7
:1001A800A20B0000A40B0000A60B0000A80B000087
:1001B800AA0B0000AC0B0000AE0B0000B00B000057
:1001C800B20B0000B40B0000B60B0000B80B000027
:1001D8000000000000000000000000000000000017
:1001E8000000000000000000000000000000000007
:0801F8000000000000000000FF
:10020000397101436EC619A0397141536AC866CA73
:1002100062CC5ECE19A0397101535AD056D252D455
:100220004ED64AD826DA22DC06DE330161408282CD
:1002300041114AC026C222C406C68282B24D410183
:10024000024D924C224CB24B4101024B924A224A3F
:10025000B2494101024992442244B24041018280A4
:100260003D432A876373C3029377F700BDEFADE583
:10027000937606FF3D8ABA960CC34CC30CC74CC795
:100280004107E36BD7FE11E28280B306C3408A06C2
:100290009702000096966780A6002307B700A30682
:1002A000B7002306B700A305B7002305B700A304D2
:1002B000B7002304B700A303B7002303B700A302CA
:1002C000B7002302B700A301B7002301B700A300C2
:1002D000B7002300B700828093F5F50F9396850051
:1002E000D58D93960501D58D61B79396270097021A
:1002F000000096968682E78086FA9680C1171D8F49
:100300003E96E374C3F8A5B77300203001A0EFF266
:100310009FF0011102CA02CC02CE02C002C202C486
:1003200002C62318010085451145EF00103DB9476D
:10033000231AF10041494ACE8D4426CC4C0837148B
:10034000014013050480EF00901093070002231A68
:10035000F100E1494ECE26CC4C0813050480EF0095
:10036000100F93070004231AF10091473ECE4C086A
:1003700013050480EF00B00D93070008231AF10065
:100380004ECE26CC4C0813050480EF00500C854758
:10039000231AF1004ACE26CC4C0813050480EF0046
:1003A000100B85450565EF005035231001009307BC
:1003B00040102311F1002312010023130100231424
:1003C0000100930700202315F10093070003231673
:1003D000F100231701008A8537350140EF00D03343
:1003E000854537350140EF00D0380561B9BDEFF2E2
:1003F0003FE4EF00205FEF00B04D396513050510B5
:10040000EF005053293783A581803735000013054D
:100410004509EF00505EEF00F002AA853735000075
:100420001305450AEF00305DFD2ED145130520036D
:100430000D223704002005469305040813056004C7
:100440000522856413858438EF00F04A0145612058
:1004500081450145FD280546930504083735000010
:100460001305450BD122F9452945E520054693059D
:100470000408373500001305C50B7D229D2E13851A
:100480008438EF0050470145B92085471307000421
:10049000930600080D661306860C814501455D2A0A
:1004A000892E1305007DEF001045054605443719D8
:1004B000014013090980814419A0268626848545B8
:1004C0004A85EF0070051305007DEF00D04275F4FA
:1004D00005460544EDB7938741839386074033373C
:1004E000A0003307E0402380E7008507E39DD7FEA7
:1004F000828093178501E18763CB07029307F0039E
:1005000063E7B70285476305F60293D735009E0778
:10051000AA97138541833E959D898547B395B7007A
:1005200093C5F5FF83470500FD8D2300B50082804C
:1005300093D735009E07AA97138541833E959D89E1
:100540008547B395B70083470500DD8D2300B500CF
:100550008280938701822390A7002391B700828035
:10056000EFF29FCA83D7018203C70500BA9713072A
:10057000F007014C6348F70A83C7150003D72182AF
:100580003E979306F003014C63CEE608B28AAE892B
:100590002A8CC1C30149930B05FE93840182133B4E
:1005A000160091A883C52400CA9503C504002295AE
:1005B0005A8693F5F50F1375F50F253F050483C78C
:1005C00009006375F402B3178A0013970701E35B10
:1005D00007FC83C52400CA9503C5040022955686EE
:1005E00093F5F50F1375F50F2937C9BF050983C7B3
:1005F00019006370F902B387FB02CA9703A7490089
:100600008607BA9703DA070083C70900E5D30144D8
:100610005DBF9387018283C6090003D70700369721
:100620002390E700628529B9EFF29FC02A842E89C2
:10063000B2848307050089CF2686CA853E850D379B
:10064000830704006316F500050483070400EDF733
:100650003E8509B1EFF2DFBA2A8CAE8AB28D3689B7
:100660003A8DBE8B9387760093DCF74193FC7C0038
:10067000BE9C93DC3C40014A81446341E0067DBE60
:100680009357F5419D8BAA978D87CE9783C407001A
:1006900093978401E18763C20702050413150401DF
:1006A000418563032503131405014180937774008A
:1006B000E1DB860493F4F40FE1BF62955E86DA8590
:1006C0001375F50F3D35D1BF050A420A135A0A4189
:1006D000850AC20A93DA0A41E353AAFBE35620FFD4
:1006E000B3894C030145EE9913FBFA0F6DBFEFF28E
:1006F0003FB4054689453714014013050480292D70
:100700000146A14513050480012D2945EF00B01EC7
:100710000546A1451305048001252945EF00B01DBC
:1007200015BEEFF2FFB0AA84014689453714014097
:1007300013050480D5230146914513050480E92B58
:100740009305000837350140EF00700575F9A6855F
:1007500037350140EF005004054689453715014003
:1007600013050580552BFDB4EFF29FAC2A841305C9
:100770001008453F22857537F1BCEFF27FAB01E9E8
:1007800001471305E00AA382E182613FE1B4054716
:100790001305F00ACDBFEFF21FA8AA892E890146E2
:1007A00089453714014013050480BD230546914552
:1007B00013050480952301448144930500083735CF
:1007C0000140EF00C07D75F9CE9483C50400373534
:1007D0000140EF00607C050442044180A284E37E76
:1007E00089FC0546894537150140130505802D23F1
:1007F000A9BCEFF2FFA3938441831304000B1309F8
:10080000800B2285393F0145293F4145193F93051A
:1008100000082685493705041374F40F93840408EF
:10082000E31124FF05BCEFF2BFA0D135130540064C
:10083000EF00700C0145913713050002DD350145CD
:10084000CD351305000BF13D1305800CD93D014555
:10085000C93D4145F93513050004E1351305F00F95
:1008600021371305100A753D1305600A5D3D130518
:10087000800A453D1305F0036D351305400A5535D3
:100880001305300D793D0145693D1305500D513D6E
:100890001305000F79351305900D613513052002FE
:1008A00049351305A00DB53D4945A53D1305B00DCE
:1008B0008D3D13050002B5351305D0089D35514512
:1008C0008D3505455D3D01453931253793870182D9
:1008D000239007002391070005472382E7006FF06C
:1008E0007F974111B717024098431367170098C3C9
:1008F000D843B706FFF8758FD8C39843B706F7FEFD
:10090000FD16758F98C39843B706FCFFFD16758FCB
:1009100098C3D843B70681FFFD16758FD8C3984397
:10092000B70600ECFD16758F98C33707FF0098C710
:1009300023A6070202C402C69843C166558F98C316
:1009400037160240B706020005671C42F58F3EC607
:10095000A24785073EC4B24781E7A247E397E7FE77
:10096000B71702409C431397E700635A0700854777
:100970003EC6324785476306F7004101828002C6C2
:10098000CDBFB7170240D843D8C3D843D8C3D84344
:1009900013670740D8C3D843B706C1FFFD16758F4C
:1009A000D8C3D843C166558FD8C39843B706000152
:1009B000558F98C3371702401C4393966700E3DDB9
:1009C00006FEB7170240D843719BD8C3D8431367BC
:1009D0002700D8C3B71602402147DC42B18BE39E03
:1009E000E7FE61BFB7170240DC43B18B1147638755
:1009F000E7042147638BE70481CBB7177A0093871D
:100A0000072023A4F18039A0B7177A009387072025
:100A100023A4F180B7170240DC43918313F7F7005A
:100A2000B707002093870700BA9783C6070093870C
:100A3000818098433357D70098C38280B7177A00D4
:100A40009387072023A4F180F1B7371702405C4356
:100A500054434167F98EC983BD8B1387270085C333
:100A6000BD476306F704C1476315F70081473D475B
:100A700009A8C5476310F7048147414719A081477A
:100A80004947A1E6B746024083A60680C18A8DC6C3
:100A9000B7167A00938606203307D70223A4E18095
:100AA000B5DB938781809843058398C3A5B78547B5
:100AB0003547C1BF8147F1B7B7163D009386069011
:100AC0003307D70223A4E180E1BFB7160240D44226
:100AD0001396E600635B0600B7163D00938606900A
:100AE0003307D70223A4E18065BFB7167A00938647
:100AF00006203307D70223A4E1805DB701A001A03F
:100B000001A001A001A001A001A001A001A001A0DD
:100B100001A001A001A001A001A001A001A001A0CD
:100B200001A001A001A001A001A001A001A001A0BD
:100B300001A001A001A001A001A001A001A001A0AD
:100B400001A001A001A001A001A001A001A001A09D
:100B500001A001A001A001A001A001A001A001A08D
:100B600001A001A001A001A001A001A001A001A07D
:100B700001A001A001A001A001A001A001A001A06D
:100B800001A001A001A001A001A001A001A001A05D
:100B900001A001A001A001A001A001A001A001A04D
:100BA00001A001A001A001A001A001A001A001A03D
:100BB00001A001A001A001A001A097010020938144
:100BC00061CC177100201301E143173500001305B4
:100BD000A59D97F5FF1F9385E5421386018263FA71
:100BE000C5008322050023A0550011059105E3EA05
:100BF000C5FE13850182938581C36377B5002320E9
:100C000005001105E36DB5FEFD42739002BCAD42D7
:100C100073904280B76200009382820873A0023012
:100C200097F2FFFF9382824193E232007390523039
:100C3000EFF03FCB97F2FFFF9382A27B73901234C9
:100C400073002030B7F7FF1F03A5477082809C45D3
:100C500093F8F700C18B81C7DC41B3E8F80083C784
:100C60000500A9CB10418147054E3D4F930E8002F0
:100C7000930F8004214329A054C98507638B670221
:100C8000B316FE0003D70500758FE398E6FE1397B1
:100C900027003318EF001348F8FF3376C800339766
:100CA000E800598E9845E309D7FDE318F7FD14C90C
:100CB000E9B710C103D705009307F00F63FDE70400
:100CC0005041A147054EBD4F130F8002930E800483
:100CD000414331A054C915A88507638D6702B31637
:100CE000FE0003D70500758FE398E6FE13972700F3
:100CF00001173398EF001348F8FF3376C800339795
:100D0000E800598E9845E307E7FD9845E316D7FDBF
:100D100014C9D9B750C1828019C20CC982804CC98C
:100D20008280B7170240DC43B18B11476382E7082A
:100D300021476385E70899C7B7177A00938707208B
:100D40001CC131A0B7177A00938707201CC1371642
:100D500002405C429183BD8B3707002013070701D7
:100D6000BA9783C607001C41B3D7D7005CC1544271
:100D7000A1829D8ABA9683C60600B3D6D70014C551
:100D80005442AD829D8A369703470700B3D7E700E8
:100D90005CC558423983937637001387C1803697F4
:100DA000034707001377F70FB3D7E7021CC9828008
:100DB000B7177A00938707201CC151BF371702402D
:100DC0005C435843C166758FC983BD8B8907B7F6ED
:100DD000FF1F83A6C6701396160163470602454699
:100DE00081466381C7023DE33747024003270780FE
:100DF000418B29C737177A0013070720B387E7020B
:100E00001CC179A8C947C5B789466381D702BD46C9
:100E10006381D702C1466395D7008146BD47E1B7DC
:100E2000C546639BD7008146C14775BF8146C94708
:100E30005DBF8546B54745BF814675B737173D004D
:100E400013070790B387E7021CC199A83717024020
:100E500058571316F70063540608B7150240D855C3
:100E600011833D8B050737167A001306062033578A
:100E7000E60218C1D05521823D8A0DEA13162700DB
:100E80003297058318C13717024058573D8B050725
:100E900010413357E60218C11841B307F7021CC1CD
:100EA000E38706EA1C4185831CC155B58545630A65
:100EB000B600BD45630FB60009063307E60218C148
:100EC000D9B7131617003A960E063297058318C144
:100ED0005DBF1316270032970A0718C16DB7371781
:100EE000024058573D8B1306170037177A00130737
:100EF00007203357C70218C145B799C537170240B5
:100F00001C4F5D8D08CF8280B7170240984F134564
:100F1000F5FF798D88CF8280035705008D67938711
:100F200007047D8F83D7050083D62500D58F83D610
:100F30004500D58F83D66500D58F83D68500D58FA4
:100F400083D6A500D58F83D6C500D58F83D6E5007F
:100F5000D58FD98F2310F5000357C501FD779387EF
:100F6000F77FF98F231EF50083D705012318F500BD
:100F7000828081C98357050093E707042310F50099
:100F8000828083570500C207C18393F7F7FBC2072E
:100F9000C1832310F50082802316B500828003559B
:100FA00085006D8D3335A0008280EFF26FA80111AE
:100FB0002A84AE8403570501F577FD17F98F03D70F
:100FC0006500D98F2318F5000357C500FD77938777
:100FD000379FF98F03D74500D98F03D78500D98F65
:100FE00003D7A500D98F2316F50083574501C20703
:100FF000C18393F7F7CF03D7C500D98F231AF50024
:1010000068000533B747014093870780630FF404F6
:1010100052478357C400C207C18763CA07049317A6
:101020001700BA978E07BA9798400A07B3D7E70216
:1010300013074006B3D6E7029206B3F7E702035759
:10104000C40042074187634E070292079387270334
:1010500013074006B3D7E702BD8BD58FC207C18304
:101060002314F40005616FF0EF9E62475DB793179C
:101070001700BA978E07BA9798400607B3D7E702CA
:1010800045BF1397370013072703930740063357CD
:10109000F7021D8BB367D700D1B781C98357C5004D
:1010A0000967D98F2316F50082800357C500F977A9
:1010B000FD17F98F2316F500828093F5F51F231293
:1010C000B5008280035505006D8D3335A000828008
:1010D00083A7818037177A0013070720B3D7E70269
:1010E00093F7F70F2384F1821307803EB387E7025B
:1010F0002393F1828280B7F700E0D843799BD8C36D
:1011000003D761823306A702814690CBD4CB9843A4
:101110001367070198C398431367170298C337F7FB
:1011200000E05C43858BF5DF37F700E01C43F99B5B
:101130001CC38280EFF2CF8F01112A84854511658F
:101140001105653B93070020231AF1008D473ECC23
:10115000E1473ECE4C083715014013050580C53CDC
:1011600022C22314010023150100231601002318B5
:101170000100A1472317F1004C003744014013053B
:1011800004802535854513050480013F05616FF016
:101190006F8CEFF24F88B2896357C002AE843389F7
:1011A000C5003744014013040480930500042285E0
:1011B000113F65DD85048385F4FFC205C181228569
:1011C000ED3DE31499FE4E856FF02F8803A7018152
:1011D0003A95938781C3636CF500B78700209387A6
:1011E000078063E8A70023A8A1803A8582807D5705
:1011F000EDBF7D57DDBF39713EDA2ED232D436D6FF
:101200003AD842DC46DE9387418122CC804326CA0D
:1012100006CEAA8409C41C4C99E32285C9280C4433
:1012200054102686228536C68D2EF2406244D24462
:1012300021618280411122C406C62A842316B5008A
:101240002317C500232005002322050023240500C1
:101250002322050623280500232A0500232C050048
:10126000214681451305C505EFE09FFF9717000054
:101270009387A79A5CD0971700009387079D1CD48B
:1012800097170000938747A15CD4971700009387B6
:1012900007A400D01CD8B240224441018280971597
:1012A0000000938545D9A9A2411126C213068006E4
:1012B0009384F5FFB384C4024AC02E8922C406C6B3
:1012C00093854407612A2A8401CD23200500232227
:1012D0002501310508C4138684068145EFE05FF8D7
:1012E0002285B240224492440249410182801C4D31
:1012F000ADE3411106C622C497070000938767FA41
:101300001CD5938781819C4323240504232605044F
:10131000232805046314F50085471CCD2A841D2865
:1013200048C02285052808C422852D2048C448408D
:1013300001469145013708440546A545E53D484429
:101340000946C945C53D85471CCCB24022444101F0
:101350008280828041119387818126C284434AC062
:1013600006C69C4C22C42A8999E326854937938472
:1013700084048044DC40FD1763D607009C40B9CF4D
:101380008440C5BF0317C40039E7C177850723220E
:1013900004062320040023220400232404005CC448
:1013A00023280400232A0400232C0400214681451D
:1013B0001305C405EFE0DFEA232A0402232C04020C
:1013C00023240404232604042285B24022449244A8
:1013D0000249410182801304840671BF91454A8508
:1013E000E13588C051FDB1472320F9000144E9BF30
:1013F000797122D44AD052CC56CA5AC85EC606D693
:1014000026D24ECE2A8AAE8A130485040149054BA2
:10141000FD5B09ECB25022544A8592540259F249BC
:10142000624AD24A424BB24B4561828004448329CE
:101430004400FD1963D409000040E1BF83D7C40014
:10144000637BFB008397E40063877701A685528561
:10145000829A3369A90093848406E1BF011126CAE8
:1014600093843500F19806CE22CC4AC84EC6A1041A
:10147000B14763F3F404B14463E2B4042A89EF0092
:1014800070559387C18298433A8439E093870183EA
:101490009C4391E781454A85912F23A8A182A68587
:1014A0004A85A927FD5963193507B1472320F9005B
:1014B0004A85EF00505229A0E3D004FCB1471CC17B
:1014C0000145F2406244D2444249B24905618280FA
:1014D0001C40858F63CF0702AD4663F6F6001CC043
:1014E0003E9404C031A05C406313870223A6F182BE
:1014F0004A85EF00504E1305B400930744006199EC
:101500003307F5405DDF3A94898F1CC05DBF5CC333
:10151000C5B72287404095BF130435007198E30298
:1015200085FCB305A4404A85D125E31C35FBB5BF36
:101530001C46FD171CC663D90700184E63C5E7009B
:10154000A9476393F50069A71C422E8513871700EE
:1015500018C22380B7008280011122CC26CA4AC853
:101560004EC652C406CE2A89AE893284B304D60050
:101570007D5A63149400014509A8834504004E86F2
:101580004A857D370504E31645FFF2406244D244A4
:101590004249B249224A05618280357122CD26CB6B
:1015A0004AC94EC706CF52C556C35AC1DEDEE2DC79
:1015B000E6DAAA89AE843289368401C51C4D91E3EE
:1015C0003D3397270000938767F6639CF40C83A450
:1015D000490083D7C400A18BFDC79C48EDC7930782
:1015E0000002A304F1029307000302D22305F102D3
:1015F00022C6930B5002972A0000938A2AF7054CC3
:10160000294B4A848347040099C36390770FB30C36
:101610002441638D0C00E6864A86A6854E852D3FC3
:10162000FD576308F51E9256E69636D283470400AE
:101630006381071EFD571309140002C802CE3ECA7B
:1016400002CCA309010482D48345090015465685BE
:10165000EF00B03613041900C24751E913F7070130
:1016600009C713070002A309E10413F7870009C79C
:101670001307B002A309E104834609001307A0027F
:10168000638FE606F2474A848146254603470400F5
:1016900093051400130707FD6378E60AADCA3ECE32
:1016A000BDA097270000938767EA6395F40083A4A1
:1016B000890005B797270000938747E5E39BF4F07F
:1016C00083A4C90039B7A6854E85DD2D09D97D557E
:1016D000FA406A44DA444A49BA492A4A9A4A0A4BC1
:1016E000F65B665CD65C0D618280050421BF330524
:1016F00055413315AC00C98F3EC82289B1B7324776
:1017000093064700184336C6634907023ACE03479B
:1017100004009307E002631FF704034714009307D4
:10172000A002631BF702B2470904138747009C43DA
:101730003AC663C107023ECA35A83307E04093E7C3
:1017400027003ACE3EC8E1B7B387670385462E84AB
:10175000BA972DBFFD57C5B7050402CA8146814718
:1017600025460347040093051400130707FD63781B
:10177000E606F1F2834504000D4617250000130527
:1017800065DFEF00902311CD97270000938787DE58
:101790001D8D93070004B397A700424505045D8D96
:1017A0002AC8834504001946172500001305C5DC27
:1017B000130914002304B102EF0030203DC197F754
:1017C000FFFF9387278495E74247B24713770710B7
:1017D00009CF91073EC69257D2973ED21DB5B38727
:1017E000670385462E84BA97ADBF9D07E19BA1078D
:1017F000D5B7780097060000938646D626860C0853
:101800004E8597000000E7000000FD572A8AE31488
:10181000F5FC83D7C40093F70704E39A07EA12554F
:1018200045BD780097060000938646D326860C08AF
:101830004E85012AD9BF797156CA9C49BA8A984502
:1018400022D426D24ECE52CC06D64AD05AC85EC634
:10185000AA892E84B284368A63D3E700BA879CC0F3
:101860000347340419C385079CC01C4093F7070243
:1018700081C79C4089079CC0032904001379690033
:10188000631A0900130B9401FD5B5C449840998F27
:10189000634CF9041C408346340493F70702B336C3
:1018A000D000A5EB13063404D2854E85829AFD57ED
:1018B0006303F5041C4011469840998B54448144BD
:1018C0006397C700B384E64063D3040081441C449B
:1018D00018486354F700998FBE94014969047D5BF1
:1018E00063982405014509A885465A86D2854E8508
:1018F000829A631E75017D55B2502254925402594A
:10190000F249624AD24A424BB24B45618280050994
:10191000ADBF3307D40013060003A301C704034778
:10192000540493871600A2978906A381E7049DBFFC
:1019300085462286D2854E85829AE30E65FB05098F
:1019400045B7797122D426D24AD04ECE06D652CC93
:1019500056CA5AC8B68983C685019307900632894C
:10196000AA842E8413863504638DF60263E2D706BB
:10197000930780056388F61863EDD700638106221C
:1019800093073004638FF60A930A24042301D404D6
:10199000D1A0930730066386F60A93074006E395C5
:1019A000F6FE1C40084393F6070893054500CDC694
:1019B0001C410CC363D807001307D002B307F040E3
:1019C000A301E40497260000938686BB294775A8E7
:1019D000930700076384F61663E5D7029307E006D2
:1019E000638BF6189307F006E390F6FA0C401C435D
:1019F00013F80508138547006308080608C39C43CD
:101A000095A893075007E383F6FE93078007638B3F
:101A1000F61293073007E399F6F61C43D04181454F
:101A20009386470014C383AA07005685EF00E07829
:101A300001C53305554148C05C401CC8A3010404DE
:101A400071A81C43930A2404938647009C4314C343
:101A50002301F4048547D5B793F607041C410CC352
:101A6000B1DAC207C187B9B793F5050408C3C1D974
:101A700083D707001307F0066387E60E972600005A
:101A8000938606B02947A30104044C400CC463C5E7
:101A9000050008406D9908C099E3B28A91CDB28AD9
:101AA000B3F5E702FD1AB69583C505002380BA0099
:101AB000B3D5E70263FFE70AA147631EF7001C40A6
:101AC000858B91CB58401C4863C7E7009307000300
:101AD000A38FFAFEFD1A3306564110C84E87CA86F8
:101AE0007000A2852685813B7D5A631E450B7D557E
:101AF000B250225492540259F249624AD24A424B9D
:101B000045618280A382D50497260000938646A76C
:101B10000C40084313F805081C411105630D080229
:101B200008C313F7150001C793E505020CC0414730
:101B3000B9FB0C4093F5F5FD0CC0B1B79C4193E7A0
:101B400007029CC193078007A302F40497260000B4
:101B5000938646A475BF13F8050408C3E30308FC85
:101B6000C207C1837DBF97260000938666A12147E7
:101B700019BFAE8735B794411C43CC4913F806080A
:101B8000138547006306080008C39C438CC301A863
:101B900008C393F606049C43F5DA2390B700232884
:101BA0000400B28A25BF14485686CA8526858299C4
:101BB000E30F45F31C40898B8DE7B2474844E35956
:101BC000F5F23E8535B785465686CA8526858299C3
:101BD000E30F65F1050A5C443247998FE345FAFE4D
:101BE000E9BF014A930A94017D5BF5B7411122C414
:101BF0002A842E8523AA01C206C6EFF02FDDFD57E9
:101C00006317F500938741C39C4391C31CC0B24046
:101C1000224441018280411122C42E848395E50033
:101C200006C6A92D634905007C48AA977CC8B24026
:101C30002244410182808357C4007D777D17F98F4C
:101C40002316F400EDB783D7C500011122CC26CAB4
:101C50004AC84EC606CE93F70710AA842E8432894E
:101C6000B68991C78395E50089460146352183579A
:101C7000C4007D777D17F98F2316F4008315E400E7
:101C80006244F240CE864A86B24942492685D24411
:101C9000056101A2411122C42E848395E50006C688
:101CA000E52EFD570357C400631BF500FD77FD17B4
:101CB000F98F2316F400B2402244410182808567E7
:101CC000D98F2316F40068C8FDB78395E50001A4F9
:101CD000011122CC26CA4AC806CE4EC6AA842E8935
:101CE000328409C51C4D99E3EFF06FE0972700009F
:101CF0009387C7836319F406C0401C4C1CC48357E8
:101D0000C400A18BC9C31C48BDCF1C4808409379AF
:101D1000F90F1379F90F1D8D5C486346F500A28514
:101D20002685012E2DE51C440505FD171CC41C400D
:101D30001387170018C0238037015C486389A70008
:101D40008357C400858B81CBA9476316F900A28510
:101D50002685C5240DEDF24062444A85D2444249AD
:101D6000B24905618280971700009387277E63142C
:101D7000F400804459B79717000093872779E31E32
:101D8000F4F6C0449DBFA28526851D283DDD7D5902
:101D9000D9B7411122C42A842E85B285368623AA5A
:101DA00001C206C6EFF0EFBEFD576317F50093873B
:101DB00041C39C4391C31CC0B24022444101828074
:101DC00041119387418126C2844322C44AC006C67A
:101DD0002A892E8491C49C4C81E72685EFF02FD16F
:101DE0009717000093878774631CF402C0400317A1
:101DF000C40093170701C18393F68700B5EE93F6ED
:101E000007019DEEA5472320F90013670704231659
:101E1000E4007D55B240224492440249410182804F
:101E200097170000938787726314F4008044C1B74A
:101E3000971700009387876DE31BF4FAC04445BFF2
:101E4000918B8DC74C5889C9930744046384F5006E
:101E50004A855926232A04028357C40023220400FA
:101E600093F7B7FD2316F4001C481CC08357C40029
:101E700093E787002316F4001C4881EF8357C400C2
:101E80001307002093F707286385E700A2854A859A
:101E900071248357C40013F7170005C75C48232437
:101EA0000400B307F0401CCC1C480145A5F783177C
:101EB000C40013F7070839DF93E707042316F4007B
:101EC00089BF898B014791E3584818C4F1BF41117C
:101ED00022C42A842E8523AA01C206C63929FD57A9
:101EE0006317F500938741C39C4391C31CC0B24064
:101EF00022444101828083D7C500011122CC26CA29
:101F000006CE4AC84EC613F78700AA842E8471EF06
:101F1000D841634DE000B841634AE0000145F2401A
:101F20006244D2444249B2490561828058547DD707
:101F300003A904009396370123A0040063DD06067D
:101F400070488357C400918B99C75C401D8E5C58C4
:101F500099C33C401D8E5C540C5081462685829767
:101F6000FD570357C400631DF5009440F54763E82F
:101F7000D706B70740208507B3D7D700858BA5C301
:101F80001C48232204001CC09317370163D80700A4
:101F9000FD576314F5009C4091E368C84C5823A09A
:101FA0002401ADDD930744046384F50026852D24C8
:101FB000232A0402A5B70C500146854626850297C0
:101FC000FD572A86E31FF5F69C40A5DF754763851C
:101FD000E70059476394E70423A0240181B71367FE
:101FE00007042316E4007D551DBF83A90501E3877F
:101FF00009F203A905008D8B23A03501330939416E
:10200000014791E3D84918C4E35A20F11C540C50FD
:10201000CA864E86268582976349A0008357C400EE
:1020200093E707042316F4007DBFAA993309A9405A
:10203000E1BF9C49A5C3011122CC06CE2A8419C553
:102040001C4D89E72EC6EFF08FAAB2459717000006
:102050009387C74D639BF5004C408397C50095C798
:1020600022856244F240056179B597170000938795
:10207000E74D6394F5000C44CDB7971700009387A4
:10208000E748E39CF5FC4C44C9BFF240624401457B
:102090000561828001458280411122C42A842E85F7
:1020A000B285368623AA01C206C6952CFD57631752
:1020B000F500938741C39C4391C31CC0B2402244A6
:1020C000410182801971A6DAAE848395E500A2DC15
:1020D00086DE328463DC050083D7C40023A00600BB
:1020E00093F707089DE39307004015A0300836C614
:1020F000652AB246E34205FE7247BD67F98F7977DC
:10210000BA9793B717009CC2F9BF930700041CC08D
:10211000F6506654D65401450961828083D7C500C4
:10212000011122CC06CE26CA4AC8898B2E8489CFBB
:10213000930774041CC01CC885475CC8F240624405
:10214000D24442490561828074003000AA849D3FD8
:10215000A2452A892685EFF06FB001ED8317C400F0
:1021600013F7072061FFF19B93E727002316F40084
:10217000C1B797F7FFFF9387C7129CD48357C4005A
:1021800008C008C893E707082316F400A2475CC8F4
:10219000B24789CF8315E4002685252A01C98357D4
:1021A000C400F19B93E717002316F4008357C40083
:1021B0003369F9002316240151B793F5F50F2A96D8
:1021C0006314C5000145828083470500E38DB7FE97
:1021D0000505FDB782808280CDC183A7C5FF41116F
:1021E00022C406C626C21384C5FF63D307003E94EB
:1021F000AA84CD379387C1829C4399EB23220400A4
:1022000023A681822244B240268592444101E1B74F
:10221000637EF40014403307D4006396E7009843CC
:10222000DC43369718C05CC0E1BFBA87D84319C3F6
:10223000E37DE4FE94433386D700631F860010409D
:10224000B29694C33386D700E31EC7FA10435843AF
:10225000B29694C3D8C37DB76375C400B1479CC020
:1022600055B71040B306C4006316D7001443584353
:10227000B29614C058C0C0C371B78280411122C445
:102280002A842E85B285368623AA01C206C6712805
:10229000FD576317F500938741C39C4391C31CC04E
:1022A000B240224441018280411122C42A842E85F9
:1022B000B28523AA01C206C6B920FD576317F500EF
:1022C000938741C39C4391C31CC0B2402244410147
:1022D0008280411122C42A842E8523AA01C206C607
:1022E0000D28FD576317F500938741C39C4391C3A5
:1022F0001CC0B2402244410182809307800523AA7A
:10230000F1C27D5582809307800523AAF1C27D55D5
:1023100082809307800523AAF1C20145828093073A
:10232000800523AAF1C27D5582809307800523AAE8
:10233000F1C27D5582800000000000000000000016
:10234000000000000000000000000000000000008D
:102350000000000000000000000000000000000C71
:10236000000C000C000C000C000C000C000C000C0D
:10237000000C000C0000000C000C0000000000002D
:102380000000001B001B001B001B001B00000000C6
:10239000000000000000000000000000000000003D
:1023A0000000000000008019801980198019C07F8A
:1023B000C07F80190033C07FC07F003300330033FB
:1023C00000330000000000000000001E003F807588
:1023D00080650074003C001E0007800580658065F4
:1023E0008075003F001E0004000400000000007023
:1023F00000D840D8C0D880D900730006000C801BDC
:10240000C036C066C046C006800300000000000061
:102410000000001E003F003300330033001E000C9C
:10242000C03CC066806380618063C03E801C000049
:10243000000000000000000C000C000C000C000C60
:10244000000000000000000000000000000000008C
:1024500000000000000000008000000100030006F2
:1024600000060004000C000C000C000C000C000C1A
:102470000004000600060003000180000020001098
:102480000018000C000C0004000600060006000600
:10249000000600060004000C000C001800100020CC
:1024A0000000000C002D003F001E00330000000063
:1024B000000000000000000000000000000000001C
:1024C00000000000000000000000000C000C000CE8
:1024D000000CC0FFC0FF000C000C000C000C000042
:1024E00000000000000000000000000000000000EC
:1024F00000000000000000000000000000000000DC
:102500000000000C000C00040004000800000000A3
:102510000000000000000000000000000000001E9D
:10252000001E00000000000000000000000000008D
:10253000000000000000000000000000000000009B
:1025400000000000000000000000000C000C000073
:102550000000000000000003000300030006000666
:1025600000060006000C000C000C000C00180018FF
:1025700000180000000000000000001E003F0033B3
:10258000806180618061806D806D8061806180612B
:102590000033003F001E00000000000000000006A5
:1025A000000E001E0036002600060006000600068B
:1025B00000060006000600060006000000000000FD
:1025C0000000001E003F8073806180618001000375
:1025D0000006000C001800300060807F807F000043
:1025E000000000000000001C003E006300630003C8
:1025F000000E000E00038001800180618073003FA7
:10260000001E00000000000000000006000E000E8A
:10261000001E001E0016003600360066807F807F98
:102620000006000600060000000000000000007F19
:10263000007F006000600060006E007F80638001AA
:10264000800180618073003F001E000000000000D8
:102650000000001E003F803380610060006E007F3C
:1026600080738061806180618033003F001E0000C4
:10267000000000000000807F807F800100030003D5
:1026800000060006000C000C000C000800180018E2
:1026900000180000000000000000001E003F8063E2
:1026A000806180610021001E003F80618061806147
:1026B0008061003F001E0000000000000000001EBE
:1026C000003F00738061806180618073803F801D66
:1026D000800180610073003F001E000000000000C8
:1026E00000000000000000000000000C000C0000D2
:1026F00000000000000000000000000C000C0000C2
:1027000000000000000000000000000000000000C9
:10271000000C000C00000000000000000000000C95
:10272000000C00040004000800000000000000008D
:1027300080008003000E003800600038000E800327
:102740008000000000000000000000000000000009
:10275000000000000000807F807F00000000807F7C
:10276000807F00000000000000000000000000006A
:10277000000000000000000000400070001C000786
:1027800080010007001C00700040000000000000F5
:10279000000000000000001F803FC071C060C0004A
:1027A000C00180030007000E000C000C0000000CAC
:1027B000000C0000000000000000001E003F8031FF
:1027C00080718063806F806D806D806F8067006036
:1027D0000032003E001C0000000000000000000E5F
:1027E000000E001B001B001B001B80318031803F4E
:1027F000803F8031C060C060C06000000000000009
:102800000000007C007E0063006300630063007EC4
:10281000007E0063806180618063007F007E000035
:10282000000000000000001E003F80318061006059
:102830000060006000600060006080618031003FE7
:10284000001E0000000000000000007C007F00630C
:1028500080638061806180618061806180610063EC
:102860000063007E007C0000000000000000807F0C
:10287000807F0060006000600060007F007F00607B
:10288000006000600060807F807F0000000000002A
:102890000000807F807F0060006000600060007F3B
:1028A000007F006000600060006000600060000069
:1028B000000000000000001E003F803180610060C9
:1028C0000060006080638063806180618031803F50
:1028D000001E000000000000000080618061806137
:1028E000806180618061807F807F806180618061A4
:1028F0008061806180610000000000000000003FF6
:10290000003F000C000C000C000C000C000C000C34
:10291000000C000C000C003F003F00000000000015
:102920000000800180018001800180018001800120
:1029300080018001806180618073003F001E000083
:10294000000000000000C060806100630066006657
:10295000006C0078007C0066006600638061806126
:10296000C060000000000000000000600060006027
:102970000060006000600060006000600060006057
:102980000060807F807F0000000000000000C071B8
:10299000C071C07BC07AC06AC06AC06EC064C060CB
:1029A000C060C060C060C060C06000000000000087
:1029B000000080718071807980798079806D806D70
:1029C000806D8065806780678067806380630000BA
:1029D000000000000000001E003F003380618061A5
:1029E0008061806180618061806180610033003F2F
:1029F000001E0000000000000000007E007F8063D9
:102A00008061806180618063007F007E0060006083
:102A10000060006000600000000000000000001E78
:102A2000003F0033806180618061806180618061EE
:102A3000806580670033803F401E0000000000007A
:102A40000000007E007F8063806180618063007F82
:102A5000007E00660063006380618061C0600000EA
:102A6000000000000000000E001F803180310030A7
:102A70000038001E00078003806180618031003FC4
:102A8000001E0000000000000000C0FFC0FF000C9E
:102A9000000C000C000C000C000C000C000C000CD6
:102AA000000C000C000C0000000000000000806121
:102AB000806180618061806180618061806180610E
:102AC000806180618073003F001E000000000000F4
:102AD0000000C060C060C060803180318031001B68
:102AE000001B001B001B000E000E000E0004000067
:102AF000000000000000C0C0C0C0C0C0C0C0C0C056
:102B0000C0CC804C804C805E80528052807380614B
:102B100080610000000000000000C0C08060806193
:102B20000033003B001E000C000C001E001F003B89
:102B300080718061C0C00000000000000000C0C0C3
:102B40008061806100330033001E001E000C000C09
:102B5000000C000C000C000C000C00000000000039
:102B60000000803F803F8001000300030006000C4E
:102B7000000C0018001800300060807F807F00008B
:102B800000000000000F000F000C000C000C000CF7
:102B9000000C000C000C000C000C000C000C000CD5
:102BA000000C000C000F000F0000001800180018A7
:102BB000000C000C000C000C0006000600060006CD
:102BC000000300030003000000000000001E001EC0
:102BD00000060006000600060006000600060006C5
:102BE000000600060006000600060006001E001E85
:102BF0000000000C000C001E001200330033806146
:102C000080610000000000000000000000000000E3
:102C100000000000000000000000000000000000B4
:102C200000000000000000000000000000000000A4
:102C300000000000E0FF0000000000380018000C59
:102C40000000000000000000000000000000000084
:102C50000000000000000000000000000000000074
:102C6000000000000000001F803F80618001801F85
:102C7000803F80618063807FC038000000000000DA
:102C800000000060006000600060006E007F8073E4
:102C900080618061806180618073007F006E0000D0
:102CA0000000000000000000000000000000001E06
:102CB000003F807380610060006080618073003F2E
:102CC000001E000000000000000080018001800163
:102CD0008001801D803F80738061806180618061A0
:102CE0008073803F801D0000000000000000000095
:102CF000000000000000001E003F00738061807F24
:102D0000807F00608071003F001E00000000000016
:102D10000000C007C00F000C000C807F807F000CFB
:102D2000000C000C000C000C000C000C000C00004F
:102D3000000000000000000000000000801D803F37
:102D4000807380618061806180618073803F801DBD
:102D500080018063007F003E000000600060006032
:102D60000060006F807F8071806180618061806120
:102D700080618061806100000000000000000006AA
:102D8000000600000000003E003E000600060006AF
:102D90000006000600060006000600000000000015
:102DA0000006000600000000003E003E000600068F
:102DB00000060006000600060006000600060046A3
:102DC000007E003C000000600060006000608061E8
:102DD00000630066006C007C007600630063806125
:102DE000C0600000000000000000003E003E000641
:102DF00000060006000600060006000600060006A3
:102E000000060006000600000000000000000000B0
:102E100000000000000080DDC0FFC0CEC0CCC0CCF0
:102E2000C0CCC0CCC0CCC0CCC0CC000000000000E6
:102E300000000000000000000000006F807F807133
:102E4000806180618061806180618061806100005B
:102E50000000000000000000000000000000001E54
:102E6000003F807380618061806180618073003F7A
:102E7000001E000000000000000000000000000034
:102E8000006E007F807380618061806180618073EB
:102E9000007F006E006000600060006000000000C5
:102EA00000000000801D803F807380618061806130
:102EB00080618073803F801D8001800180018001DE
:102EC000000000000000000000000067803F0039A3
:102ED00000300030003000300030003000300000A2
:102EE0000000000000000000000000000000001EC4
:102EF000803F80610060007F803F80018061007FB3
:102F0000001E000000000000000000000008001883
:102F10000018007F007F0018001800180018001823
:102F20000018801F800F000000000000000000005B
:102F3000000000000000806180618061806180612C
:102F4000806180618063807F803D00000000000020
:102F500000000000000000000000C06080318031EF
:102F60008031001B001B001B000E000E000600003D
:102F7000000000000000000000000000000080DDF4
:102F800080DD80DD00550055005500770077002278
:102F9000002200000000000000000000000000000F
:102FA0000000806100330033001E000C000C001E86
:102FB00000330033806100000000000000000000CA
:102FC0000000000080618061803100330033001B0D
:102FD000001B001B000E000E000E001C007C007089
:102FE00000000000000000000000C07FC07F8001E2
:102FF00000030006000C00180030C07FC07F0000F6
:10300000000000008003800700060006000600069E
:103010000006000E001C001C000E00060006000644
:103020000006000680078003000600060006000672
:103030000006000600060006000600060006000660
:103040000006000600060006000600060038003CE8
:10305000000C000C000C000C000C000E0007000718
:10306000000E000C000C000C000C000C003C0038A2
:103070000000000000000000000000000000803898
:10308000807F0047000000000000000000000000FA
:103090000000000053797374656D436C6B3A2564CE
:1030A0000D0A00004368697049443A253038780DAC
:1030B0000A00000048454C4C4F0000002020574FAC
:1030C000524C44203A2900000000000000000FFF8D
:1030D000FE0000000000000000000000000FFFFFE5
:1030E000FFFE0000000000000000000001FFFFFFE5
:1030F000FFFFF80000000000000000001FFE0000BD
:10310000000FFF800000000000000001FF800000B1
:1031100000003FF0000000000000000FF800010078
:10312000100001FE000000000000003F8000018050
:103130003000001FC0000000000001FC038001807F
:1031400030001803F0000000000007E01F0001C07D
:1031500070000F80FC00000000001F80FE0001FFD7
:10316000F0000FF01F00000000007C07FC0001FFD2
:10317000F00007FC07C000000000F83FF80001FF66
:10318000F80003FF81F000000003E0FFF80001FFFA
:10319000F80003FFE0780000000783FFF80001FF5C
:1031A000F80001FFF81E0000001E0FFFF00001FFF5
:1031B000F80001FFFE0F0000003C1FFFF00003FFBE
:1031C000F80001FFFF83800000787FFFF00003FF1D
:1031D000F80001FFFFC1E00000F0FFFFF00003FF77
:1031E000F80001FFFFF0F00001C3FFFFF80007FF48
:1031F000FC0001FFFFF878000387FFFFF80007FFDE
:10320000FC0003FFFFFC3800078FFFFFFC000FFFEF
:10321000FE0007FFFFFE1C00071FFFFFFE000FFF61
:10322000FF000FFFFFFF0E000E3FFFFFFF803FFF7D
:10323000FF801FFFFFFF87001C7FFFFFFFF0FFFFE6
:10324000FFE1FFFFFFFFC7001C7FFFFFFFFFFFFF46
:10325000FFFFFFFFFFFFE38038FFFFFFFFFFFFFFE0
:10326000FFFFFFFFFFFFE38039FFFFFFFFFFFFFFCF
:10327000FFFFFFFFFFFFF1C031FFFFFFFFFFFFFF79
:10328000FFFFFFFFFFFFF1C073FFFFFFFFFFFFFF27
:10329000FFFFFFFFFFFFF8C073FFFFFFFFFFFFFF10
:1032A000FFFFFFFFFFFFF8E063FFFFFFFFFFFFFFF0
:1032B000FFFFFFFFFFFFF8E063FFFFFFFFFFFFFFE0
:1032C000FFFFFFFFFFFFFCE063FFFFFFFFFFFFFFCC
:1032D000FFFFFFFFFFFFFCE063FFFFFFFFFFFFFFBC
:1032E000FFFFFFFFFFFFFCE063FFFFFFFFFFFFFFAC
:1032F000FFFFFFFFFFFFFCE063FFFFFFFFFFFFFF9C
:10330000FFFFFFFFFFFFF8E063FFFFFFFFFFFFFF8F
:10331000FFFFFFFFFFFFF8E073FFFFFFFFFFFFFF6F
:10332000FFFFFFFFFFFFF8E071FFFFFFFFFFFFFF61
:10333000FFFFFFFFFFFFF0C031FFFFFE3FFFFFFF7A
:10334000FFFFFFCFFFFFF1C038FFFFF007FFFFFFD8
:10335000FFFFFE01FFFFF1C038FFFFE001FFFFFFAD
:10336000FFFFF800FFFFE3801C7FFFE000FF1FFF6F
:10337000FF0FE000FFFFC3801C3FFFE0003E07FFA0
:10338000FE07C0007FFFC7000E3FFFC0001C07FF05
:10339000FC0700007FFF8700071FFFC0000803FF36
:1033A000F80200007FFF0E00078FFFE0000001FF22
:1033B000F00000007FFE1C000387FFE0000000FF1C
:1033C000F00000007FFC380001C3FFE0000000FFB8
:1033D000E0000000FFF8700000F1FFE00000007F57
:1033E000C0000000FFF0E00000787FF00000007FE8
:1033F000C0000001FFC1C000003C3FF00000003FE2
:1034000080000001FF878000000F0FF80000001F00
:1034100080000003FE0F0000000783FC0000001F77
:1034200000000003F83E00000003E0FC0000000F75
:1034300000000007E07800000000F83E0000000EE9
:103440000000000F81F0000000003E0700000006B1
:103450000000001C07C0000000000F808000000476
:10346000000000303F000000000003F000000000FA
:1034700000000000FC000000000000FC0000000054
:1034800000000007F00000000000003FC000000046
:103490000000003F8000000000000007F80000006E
:1034A000000003FE0000000000000000FFC000005C
:1034B00000003FF000000000000000001FFF0000BF
:1034C000001FFF00000000000000000000FFFFFFE1
:1034D000FFFFF00000000000000000000007FFFFF9
:1034E000FFFC00000000000000000000000003FFDF
:1034F000F8000000000000000000000000000000D4
:1035000000000000000000000000000000000000BB
:1035100000000000000000000000000000000000AB
:10352000000000000000000000000000000000009B
:10353000000000000000000000000000000000008B
:10354000000000000000000000000000000000007B
:10355000000000000000000000000000000000006B
:103560000000000000000000232D302B2000000090
:10357000686C4C0065666745464700003031323361
:10358000343536373839414243444546000000005F
:1035900030313233343536373839616263646566C9
:0435A0000000000027
:1035A40000000000000000000102030406070809EF
:1035B40000000000010203040102030406070809D5
:1035C40000000000283500004835000008350000E0
:1035D40000000000000000000000000000000000E7
:1035E40000000000000000000000000000000000D7
:1035F40000000000000000000000000000000000C7
:1036040000000000000000000000000000000000B6
:1036140000000000000000000000000000000000A6
:103624000B12000038230000004495080204060829
:10363400B80400202000002020000020000000002A
:00000001FF
